{
  "contractName": "Accomodation",
  "abi": [
    {
      "inputs": [],
      "name": "getAddress",
      "outputs": [
        {
          "internalType": "address",
          "name": "",
          "type": "address"
        }
      ],
      "stateMutability": "view",
      "type": "function"
    }
  ],
  "bytecode": "0x608060405234801561001057600080fd5b5060db8061001f6000396000f3fe6080604052348015600f57600080fd5b506004361060285760003560e01c806338cc483114602d575b600080fd5b60336047565b604051603e9190608c565b60405180910390f35b600030905090565b600073ffffffffffffffffffffffffffffffffffffffff82169050919050565b6000607882604f565b9050919050565b608681606f565b82525050565b6000602082019050609f6000830184607f565b9291505056fea2646970667358221220de5defe99008b44238fb48ab3f3f3c24f06910a659677e944dc8e1b6f164830564736f6c634300080b0033",
  "immutableReferences": {},
  "source": "// SPDX-License-Identifier: GPL-3.0\n\npragma solidity >=0.7.0 <0.9.0;\n\n/**\n * @title Accomodation Contract.\n * @dev Set & change owner\n */\ncontract Accomodation\n{\n    string private name;\n    string private staticDataRefence;\n\n    struct Coordinate {\n        uint256 lat;\n        uint256 long;\n    }\n\n    function getAddress() public view returns (address) {\n        return address(this);\n    }    \n}",
  "sourcePath": "/Users/santiagomarinrojas/Documents/GitHub/sheepnap-contracts/contracts/Accommodation.sol",
  "compiler": {
    "name": "solc",
    "version": "0.8.11+commit.d7f03943.Emscripten.clang"
  },
  "schemaVersion": "3.4.3",
  "updatedAt": "2022-01-20T19:38:35.940Z",
  "devdoc": {
    "details": "Set & change owner",
    "kind": "dev",
    "methods": {},
    "title": "Accomodation Contract.",
    "version": 1
  },
  "userdoc": {
    "kind": "user",
    "methods": {},
    "version": 1
  }
}