{
  "contractName": "property",
  "abi": [
    {
      "inputs": [],
      "stateMutability": "nonpayable",
      "type": "constructor"
    },
    {
      "anonymous": false,
      "inputs": [
        {
          "indexed": true,
          "internalType": "address",
          "name": "account",
          "type": "address"
        },
        {
          "indexed": true,
          "internalType": "address",
          "name": "operator",
          "type": "address"
        },
        {
          "indexed": false,
          "internalType": "bool",
          "name": "approved",
          "type": "bool"
        }
      ],
      "name": "ApprovalForAll",
      "type": "event"
    },
    {
      "anonymous": false,
      "inputs": [
        {
          "indexed": true,
          "internalType": "address",
          "name": "previousOwner",
          "type": "address"
        },
        {
          "indexed": true,
          "internalType": "address",
          "name": "newOwner",
          "type": "address"
        }
      ],
      "name": "OwnershipTransferred",
      "type": "event"
    },
    {
      "anonymous": false,
      "inputs": [
        {
          "indexed": true,
          "internalType": "address",
          "name": "operator",
          "type": "address"
        },
        {
          "indexed": true,
          "internalType": "address",
          "name": "from",
          "type": "address"
        },
        {
          "indexed": true,
          "internalType": "address",
          "name": "to",
          "type": "address"
        },
        {
          "indexed": false,
          "internalType": "uint256[]",
          "name": "ids",
          "type": "uint256[]"
        },
        {
          "indexed": false,
          "internalType": "uint256[]",
          "name": "values",
          "type": "uint256[]"
        }
      ],
      "name": "TransferBatch",
      "type": "event"
    },
    {
      "anonymous": false,
      "inputs": [
        {
          "indexed": true,
          "internalType": "address",
          "name": "operator",
          "type": "address"
        },
        {
          "indexed": true,
          "internalType": "address",
          "name": "from",
          "type": "address"
        },
        {
          "indexed": true,
          "internalType": "address",
          "name": "to",
          "type": "address"
        },
        {
          "indexed": false,
          "internalType": "uint256",
          "name": "id",
          "type": "uint256"
        },
        {
          "indexed": false,
          "internalType": "uint256",
          "name": "value",
          "type": "uint256"
        }
      ],
      "name": "TransferSingle",
      "type": "event"
    },
    {
      "anonymous": false,
      "inputs": [
        {
          "indexed": false,
          "internalType": "string",
          "name": "value",
          "type": "string"
        },
        {
          "indexed": true,
          "internalType": "uint256",
          "name": "id",
          "type": "uint256"
        }
      ],
      "name": "URI",
      "type": "event"
    },
    {
      "inputs": [
        {
          "internalType": "address",
          "name": "account",
          "type": "address"
        },
        {
          "internalType": "uint256",
          "name": "id",
          "type": "uint256"
        }
      ],
      "name": "balanceOf",
      "outputs": [
        {
          "internalType": "uint256",
          "name": "",
          "type": "uint256"
        }
      ],
      "stateMutability": "view",
      "type": "function"
    },
    {
      "inputs": [
        {
          "internalType": "address[]",
          "name": "accounts",
          "type": "address[]"
        },
        {
          "internalType": "uint256[]",
          "name": "ids",
          "type": "uint256[]"
        }
      ],
      "name": "balanceOfBatch",
      "outputs": [
        {
          "internalType": "uint256[]",
          "name": "",
          "type": "uint256[]"
        }
      ],
      "stateMutability": "view",
      "type": "function"
    },
    {
      "inputs": [
        {
          "internalType": "address",
          "name": "account",
          "type": "address"
        },
        {
          "internalType": "uint256",
          "name": "id",
          "type": "uint256"
        },
        {
          "internalType": "uint256",
          "name": "value",
          "type": "uint256"
        }
      ],
      "name": "burn",
      "outputs": [],
      "stateMutability": "nonpayable",
      "type": "function"
    },
    {
      "inputs": [
        {
          "internalType": "address",
          "name": "account",
          "type": "address"
        },
        {
          "internalType": "uint256[]",
          "name": "ids",
          "type": "uint256[]"
        },
        {
          "internalType": "uint256[]",
          "name": "values",
          "type": "uint256[]"
        }
      ],
      "name": "burnBatch",
      "outputs": [],
      "stateMutability": "nonpayable",
      "type": "function"
    },
    {
      "inputs": [
        {
          "internalType": "address",
          "name": "account",
          "type": "address"
        },
        {
          "internalType": "address",
          "name": "operator",
          "type": "address"
        }
      ],
      "name": "isApprovedForAll",
      "outputs": [
        {
          "internalType": "bool",
          "name": "",
          "type": "bool"
        }
      ],
      "stateMutability": "view",
      "type": "function"
    },
    {
      "inputs": [],
      "name": "owner",
      "outputs": [
        {
          "internalType": "address",
          "name": "",
          "type": "address"
        }
      ],
      "stateMutability": "view",
      "type": "function"
    },
    {
      "inputs": [],
      "name": "renounceOwnership",
      "outputs": [],
      "stateMutability": "nonpayable",
      "type": "function"
    },
    {
      "inputs": [
        {
          "internalType": "address",
          "name": "from",
          "type": "address"
        },
        {
          "internalType": "address",
          "name": "to",
          "type": "address"
        },
        {
          "internalType": "uint256[]",
          "name": "ids",
          "type": "uint256[]"
        },
        {
          "internalType": "uint256[]",
          "name": "amounts",
          "type": "uint256[]"
        },
        {
          "internalType": "bytes",
          "name": "data",
          "type": "bytes"
        }
      ],
      "name": "safeBatchTransferFrom",
      "outputs": [],
      "stateMutability": "nonpayable",
      "type": "function"
    },
    {
      "inputs": [
        {
          "internalType": "address",
          "name": "from",
          "type": "address"
        },
        {
          "internalType": "address",
          "name": "to",
          "type": "address"
        },
        {
          "internalType": "uint256",
          "name": "id",
          "type": "uint256"
        },
        {
          "internalType": "uint256",
          "name": "amount",
          "type": "uint256"
        },
        {
          "internalType": "bytes",
          "name": "data",
          "type": "bytes"
        }
      ],
      "name": "safeTransferFrom",
      "outputs": [],
      "stateMutability": "nonpayable",
      "type": "function"
    },
    {
      "inputs": [
        {
          "internalType": "address",
          "name": "operator",
          "type": "address"
        },
        {
          "internalType": "bool",
          "name": "approved",
          "type": "bool"
        }
      ],
      "name": "setApprovalForAll",
      "outputs": [],
      "stateMutability": "nonpayable",
      "type": "function"
    },
    {
      "inputs": [
        {
          "internalType": "bytes4",
          "name": "interfaceId",
          "type": "bytes4"
        }
      ],
      "name": "supportsInterface",
      "outputs": [
        {
          "internalType": "bool",
          "name": "",
          "type": "bool"
        }
      ],
      "stateMutability": "view",
      "type": "function"
    },
    {
      "inputs": [
        {
          "internalType": "address",
          "name": "newOwner",
          "type": "address"
        }
      ],
      "name": "transferOwnership",
      "outputs": [],
      "stateMutability": "nonpayable",
      "type": "function"
    },
    {
      "inputs": [
        {
          "internalType": "uint256",
          "name": "",
          "type": "uint256"
        }
      ],
      "name": "uri",
      "outputs": [
        {
          "internalType": "string",
          "name": "",
          "type": "string"
        }
      ],
      "stateMutability": "view",
      "type": "function"
    },
    {
      "inputs": [
        {
          "internalType": "string",
          "name": "newuri",
          "type": "string"
        }
      ],
      "name": "setURI",
      "outputs": [],
      "stateMutability": "nonpayable",
      "type": "function"
    },
    {
      "inputs": [
        {
          "internalType": "address",
          "name": "account",
          "type": "address"
        },
        {
          "internalType": "uint256",
          "name": "id",
          "type": "uint256"
        },
        {
          "internalType": "uint256",
          "name": "amount",
          "type": "uint256"
        },
        {
          "internalType": "bytes",
          "name": "data",
          "type": "bytes"
        }
      ],
      "name": "mint",
      "outputs": [],
      "stateMutability": "nonpayable",
      "type": "function"
    },
    {
      "inputs": [
        {
          "internalType": "address",
          "name": "to",
          "type": "address"
        },
        {
          "internalType": "uint256[]",
          "name": "ids",
          "type": "uint256[]"
        },
        {
          "internalType": "uint256[]",
          "name": "amounts",
          "type": "uint256[]"
        },
        {
          "internalType": "bytes",
          "name": "data",
          "type": "bytes"
        }
      ],
      "name": "mintBatch",
      "outputs": [],
      "stateMutability": "nonpayable",
      "type": "function"
    }
  ],
  "bytecode": "0x60806040523480156200001157600080fd5b506040518060200160405280600081525062000033816200005a60201b60201c565b5062000054620000486200007660201b60201c565b6200007e60201b60201c565b62000259565b80600290805190602001906200007292919062000144565b5050565b600033905090565b6000600360009054906101000a900473ffffffffffffffffffffffffffffffffffffffff16905081600360006101000a81548173ffffffffffffffffffffffffffffffffffffffff021916908373ffffffffffffffffffffffffffffffffffffffff1602179055508173ffffffffffffffffffffffffffffffffffffffff168173ffffffffffffffffffffffffffffffffffffffff167f8be0079c531659141344cd1fd0a4f28419497f9722a3daafe3b4186f6b6457e060405160405180910390a35050565b8280546200015290620001f4565b90600052602060002090601f016020900481019282620001765760008555620001c2565b82601f106200019157805160ff1916838001178555620001c2565b82800160010185558215620001c2579182015b82811115620001c1578251825591602001919060010190620001a4565b5b509050620001d19190620001d5565b5090565b5b80821115620001f0576000816000905550600101620001d6565b5090565b600060028204905060018216806200020d57607f821691505b602082108114156200022457620002236200022a565b5b50919050565b7f4e487b7100000000000000000000000000000000000000000000000000000000600052602260045260246000fd5b613c7580620002696000396000f3fe608060405234801561001057600080fd5b50600436106100ff5760003560e01c8063715018a611610097578063e985e9c511610066578063e985e9c514610294578063f242432a146102c4578063f2fde38b146102e0578063f5298aca146102fc576100ff565b8063715018a614610234578063731133e91461023e5780638da5cb5b1461025a578063a22cb46514610278576100ff565b80631f7fdffa116100d35780631f7fdffa146101b05780632eb2c2d6146101cc5780634e1273f4146101e85780636b20c45414610218576100ff565b8062fdd58e1461010457806301ffc9a71461013457806302fe5305146101645780630e89341c14610180575b600080fd5b61011e60048036038101906101199190612a07565b610318565b60405161012b91906132b9565b60405180910390f35b61014e60048036038101906101499190612b79565b6103e1565b60405161015b919061309c565b60405180910390f35b61017e60048036038101906101799190612bcb565b6104c3565b005b61019a60048036038101906101959190612c0c565b61054b565b6040516101a791906130b7565b60405180910390f35b6101ca60048036038101906101c59190612920565b6105df565b005b6101e660048036038101906101e19190612753565b61066d565b005b61020260048036038101906101fd9190612b0d565b61070e565b60405161020f9190613043565b60405180910390f35b610232600480360381019061022d91906128a1565b6108bf565b005b61023c61095c565b005b61025860048036038101906102539190612a92565b6109e4565b005b610262610a72565b60405161026f9190612f66565b60405180910390f35b610292600480360381019061028d91906129cb565b610a9c565b005b6102ae60048036038101906102a99190612717565b610ab2565b6040516102bb919061309c565b60405180910390f35b6102de60048036038101906102d99190612812565b610b46565b005b6102fa60048036038101906102f591906126ee565b610be7565b005b61031660048036038101906103119190612a43565b610cdf565b005b60008073ffffffffffffffffffffffffffffffffffffffff168373ffffffffffffffffffffffffffffffffffffffff161415610389576040517f08c379a000000000000000000000000000000000000000000000000000000000815260040161038090613119565b60405180910390fd5b60008083815260200190815260200160002060008473ffffffffffffffffffffffffffffffffffffffff1673ffffffffffffffffffffffffffffffffffffffff16815260200190815260200160002054905092915050565b60007fd9b67a26000000000000000000000000000000000000000000000000000000007bffffffffffffffffffffffffffffffffffffffffffffffffffffffff1916827bffffffffffffffffffffffffffffffffffffffffffffffffffffffff191614806104ac57507f0e89341c000000000000000000000000000000000000000000000000000000007bffffffffffffffffffffffffffffffffffffffffffffffffffffffff1916827bffffffffffffffffffffffffffffffffffffffffffffffffffffffff1916145b806104bc57506104bb82610d7c565b5b9050919050565b6104cb610de6565b73ffffffffffffffffffffffffffffffffffffffff166104e9610a72565b73ffffffffffffffffffffffffffffffffffffffff161461053f576040517f08c379a000000000000000000000000000000000000000000000000000000000815260040161053690613219565b60405180910390fd5b61054881610dee565b50565b60606002805461055a90613559565b80601f016020809104026020016040519081016040528092919081815260200182805461058690613559565b80156105d35780601f106105a8576101008083540402835291602001916105d3565b820191906000526020600020905b8154815290600101906020018083116105b657829003601f168201915b50505050509050919050565b6105e7610de6565b73ffffffffffffffffffffffffffffffffffffffff16610605610a72565b73ffffffffffffffffffffffffffffffffffffffff161461065b576040517f08c379a000000000000000000000000000000000000000000000000000000000815260040161065290613219565b60405180910390fd5b61066784848484610e08565b50505050565b610675610de6565b73ffffffffffffffffffffffffffffffffffffffff168573ffffffffffffffffffffffffffffffffffffffff1614806106bb57506106ba856106b5610de6565b610ab2565b5b6106fa576040517f08c379a00000000000000000000000000000000000000000000000000000000081526004016106f1906131b9565b60405180910390fd5b6107078585858585611072565b5050505050565b60608151835114610754576040517f08c379a000000000000000000000000000000000000000000000000000000000815260040161074b90613259565b60405180910390fd5b6000835167ffffffffffffffff811115610797577f4e487b7100000000000000000000000000000000000000000000000000000000600052604160045260246000fd5b6040519080825280602002602001820160405280156107c55781602001602082028036833780820191505090505b50905060005b84518110156108b45761085e858281518110610810577f4e487b7100000000000000000000000000000000000000000000000000000000600052603260045260246000fd5b6020026020010151858381518110610851577f4e487b7100000000000000000000000000000000000000000000000000000000600052603260045260246000fd5b6020026020010151610318565b828281518110610897577f4e487b7100000000000000000000000000000000000000000000000000000000600052603260045260246000fd5b602002602001018181525050806108ad906135bc565b90506107cb565b508091505092915050565b6108c7610de6565b73ffffffffffffffffffffffffffffffffffffffff168373ffffffffffffffffffffffffffffffffffffffff16148061090d575061090c83610907610de6565b610ab2565b5b61094c576040517f08c379a000000000000000000000000000000000000000000000000000000000815260040161094390613179565b60405180910390fd5b6109578383836113d2565b505050565b610964610de6565b73ffffffffffffffffffffffffffffffffffffffff16610982610a72565b73ffffffffffffffffffffffffffffffffffffffff16146109d8576040517f08c379a00000000000000000000000000000000000000000000000000000000081526004016109cf90613219565b60405180910390fd5b6109e260006116cf565b565b6109ec610de6565b73ffffffffffffffffffffffffffffffffffffffff16610a0a610a72565b73ffffffffffffffffffffffffffffffffffffffff1614610a60576040517f08c379a0000000000000000000000000000000000000000000000000000000008152600401610a5790613219565b60405180910390fd5b610a6c84848484611795565b50505050565b6000600360009054906101000a900473ffffffffffffffffffffffffffffffffffffffff16905090565b610aae610aa7610de6565b838361192b565b5050565b6000600160008473ffffffffffffffffffffffffffffffffffffffff1673ffffffffffffffffffffffffffffffffffffffff16815260200190815260200160002060008373ffffffffffffffffffffffffffffffffffffffff1673ffffffffffffffffffffffffffffffffffffffff16815260200190815260200160002060009054906101000a900460ff16905092915050565b610b4e610de6565b73ffffffffffffffffffffffffffffffffffffffff168573ffffffffffffffffffffffffffffffffffffffff161480610b945750610b9385610b8e610de6565b610ab2565b5b610bd3576040517f08c379a0000000000000000000000000000000000000000000000000000000008152600401610bca90613179565b60405180910390fd5b610be08585858585611a98565b5050505050565b610bef610de6565b73ffffffffffffffffffffffffffffffffffffffff16610c0d610a72565b73ffffffffffffffffffffffffffffffffffffffff1614610c63576040517f08c379a0000000000000000000000000000000000000000000000000000000008152600401610c5a90613219565b60405180910390fd5b600073ffffffffffffffffffffffffffffffffffffffff168173ffffffffffffffffffffffffffffffffffffffff161415610cd3576040517f08c379a0000000000000000000000000000000000000000000000000000000008152600401610cca90613139565b60405180910390fd5b610cdc816116cf565b50565b610ce7610de6565b73ffffffffffffffffffffffffffffffffffffffff168373ffffffffffffffffffffffffffffffffffffffff161480610d2d5750610d2c83610d27610de6565b610ab2565b5b610d6c576040517f08c379a0000000000000000000000000000000000000000000000000000000008152600401610d6390613179565b60405180910390fd5b610d77838383611d1a565b505050565b60007f01ffc9a7000000000000000000000000000000000000000000000000000000007bffffffffffffffffffffffffffffffffffffffffffffffffffffffff1916827bffffffffffffffffffffffffffffffffffffffffffffffffffffffff1916149050919050565b600033905090565b8060029080519060200190610e049291906123e6565b5050565b600073ffffffffffffffffffffffffffffffffffffffff168473ffffffffffffffffffffffffffffffffffffffff161415610e78576040517f08c379a0000000000000000000000000000000000000000000000000000000008152600401610e6f90613299565b60405180910390fd5b8151835114610ebc576040517f08c379a0000000000000000000000000000000000000000000000000000000008152600401610eb390613279565b60405180910390fd5b6000610ec6610de6565b9050610ed781600087878787611f37565b60005b8451811015610fdc57838181518110610f1c577f4e487b7100000000000000000000000000000000000000000000000000000000600052603260045260246000fd5b6020026020010151600080878481518110610f60577f4e487b7100000000000000000000000000000000000000000000000000000000600052603260045260246000fd5b6020026020010151815260200190815260200160002060008873ffffffffffffffffffffffffffffffffffffffff1673ffffffffffffffffffffffffffffffffffffffff1681526020019081526020016000206000828254610fc2919061344d565b925050819055508080610fd4906135bc565b915050610eda565b508473ffffffffffffffffffffffffffffffffffffffff16600073ffffffffffffffffffffffffffffffffffffffff168273ffffffffffffffffffffffffffffffffffffffff167f4a39dc06d4c0dbc64b70af90fd698a233a518aa5d07e595d983b8c0526c8f7fb8787604051611054929190613065565b60405180910390a461106b81600087878787611f3f565b5050505050565b81518351146110b6576040517f08c379a00000000000000000000000000000000000000000000000000000000081526004016110ad90613279565b60405180910390fd5b600073ffffffffffffffffffffffffffffffffffffffff168473ffffffffffffffffffffffffffffffffffffffff161415611126576040517f08c379a000000000000000000000000000000000000000000000000000000000815260040161111d90613199565b60405180910390fd5b6000611130610de6565b9050611140818787878787611f37565b60005b845181101561133d576000858281518110611187577f4e487b7100000000000000000000000000000000000000000000000000000000600052603260045260246000fd5b6020026020010151905060008583815181106111cc577f4e487b7100000000000000000000000000000000000000000000000000000000600052603260045260246000fd5b60200260200101519050600080600084815260200190815260200160002060008b73ffffffffffffffffffffffffffffffffffffffff1673ffffffffffffffffffffffffffffffffffffffff1681526020019081526020016000205490508181101561126d576040517f08c379a0000000000000000000000000000000000000000000000000000000008152600401611264906131f9565b60405180910390fd5b81810360008085815260200190815260200160002060008c73ffffffffffffffffffffffffffffffffffffffff1673ffffffffffffffffffffffffffffffffffffffff168152602001908152602001600020819055508160008085815260200190815260200160002060008b73ffffffffffffffffffffffffffffffffffffffff1673ffffffffffffffffffffffffffffffffffffffff1681526020019081526020016000206000828254611322919061344d565b9250508190555050505080611336906135bc565b9050611143565b508473ffffffffffffffffffffffffffffffffffffffff168673ffffffffffffffffffffffffffffffffffffffff168273ffffffffffffffffffffffffffffffffffffffff167f4a39dc06d4c0dbc64b70af90fd698a233a518aa5d07e595d983b8c0526c8f7fb87876040516113b4929190613065565b60405180910390a46113ca818787878787611f3f565b505050505050565b600073ffffffffffffffffffffffffffffffffffffffff168373ffffffffffffffffffffffffffffffffffffffff161415611442576040517f08c379a0000000000000000000000000000000000000000000000000000000008152600401611439906131d9565b60405180910390fd5b8051825114611486576040517f08c379a000000000000000000000000000000000000000000000000000000000815260040161147d90613279565b60405180910390fd5b6000611490610de6565b90506114b081856000868660405180602001604052806000815250611f37565b60005b83518110156116495760008482815181106114f7577f4e487b7100000000000000000000000000000000000000000000000000000000600052603260045260246000fd5b60200260200101519050600084838151811061153c577f4e487b7100000000000000000000000000000000000000000000000000000000600052603260045260246000fd5b60200260200101519050600080600084815260200190815260200160002060008973ffffffffffffffffffffffffffffffffffffffff1673ffffffffffffffffffffffffffffffffffffffff168152602001908152602001600020549050818110156115dd576040517f08c379a00000000000000000000000000000000000000000000000000000000081526004016115d490613159565b60405180910390fd5b81810360008085815260200190815260200160002060008a73ffffffffffffffffffffffffffffffffffffffff1673ffffffffffffffffffffffffffffffffffffffff168152602001908152602001600020819055505050508080611641906135bc565b9150506114b3565b50600073ffffffffffffffffffffffffffffffffffffffff168473ffffffffffffffffffffffffffffffffffffffff168273ffffffffffffffffffffffffffffffffffffffff167f4a39dc06d4c0dbc64b70af90fd698a233a518aa5d07e595d983b8c0526c8f7fb86866040516116c1929190613065565b60405180910390a450505050565b6000600360009054906101000a900473ffffffffffffffffffffffffffffffffffffffff16905081600360006101000a81548173ffffffffffffffffffffffffffffffffffffffff021916908373ffffffffffffffffffffffffffffffffffffffff1602179055508173ffffffffffffffffffffffffffffffffffffffff168173ffffffffffffffffffffffffffffffffffffffff167f8be0079c531659141344cd1fd0a4f28419497f9722a3daafe3b4186f6b6457e060405160405180910390a35050565b600073ffffffffffffffffffffffffffffffffffffffff168473ffffffffffffffffffffffffffffffffffffffff161415611805576040517f08c379a00000000000000000000000000000000000000000000000000000000081526004016117fc90613299565b60405180910390fd5b600061180f610de6565b90506118308160008761182188612126565b61182a88612126565b87611f37565b8260008086815260200190815260200160002060008773ffffffffffffffffffffffffffffffffffffffff1673ffffffffffffffffffffffffffffffffffffffff168152602001908152602001600020600082825461188f919061344d565b925050819055508473ffffffffffffffffffffffffffffffffffffffff16600073ffffffffffffffffffffffffffffffffffffffff168273ffffffffffffffffffffffffffffffffffffffff167fc3d58168c5ae7397731d063d5bbf3d657854427343f4c083240f7aacaa2d0f62878760405161190d9291906132d4565b60405180910390a4611924816000878787876121ec565b5050505050565b8173ffffffffffffffffffffffffffffffffffffffff168373ffffffffffffffffffffffffffffffffffffffff16141561199a576040517f08c379a000000000000000000000000000000000000000000000000000000000815260040161199190613239565b60405180910390fd5b80600160008573ffffffffffffffffffffffffffffffffffffffff1673ffffffffffffffffffffffffffffffffffffffff16815260200190815260200160002060008473ffffffffffffffffffffffffffffffffffffffff1673ffffffffffffffffffffffffffffffffffffffff16815260200190815260200160002060006101000a81548160ff0219169083151502179055508173ffffffffffffffffffffffffffffffffffffffff168373ffffffffffffffffffffffffffffffffffffffff167f17307eab39ab6107e8899845ad3d59bd9653f200f220920489ca2b5937696c3183604051611a8b919061309c565b60405180910390a3505050565b600073ffffffffffffffffffffffffffffffffffffffff168473ffffffffffffffffffffffffffffffffffffffff161415611b08576040517f08c379a0000000000000000000000000000000000000000000000000000000008152600401611aff90613199565b60405180910390fd5b6000611b12610de6565b9050611b32818787611b2388612126565b611b2c88612126565b87611f37565b600080600086815260200190815260200160002060008873ffffffffffffffffffffffffffffffffffffffff1673ffffffffffffffffffffffffffffffffffffffff16815260200190815260200160002054905083811015611bc9576040517f08c379a0000000000000000000000000000000000000000000000000000000008152600401611bc0906131f9565b60405180910390fd5b83810360008087815260200190815260200160002060008973ffffffffffffffffffffffffffffffffffffffff1673ffffffffffffffffffffffffffffffffffffffff168152602001908152602001600020819055508360008087815260200190815260200160002060008873ffffffffffffffffffffffffffffffffffffffff1673ffffffffffffffffffffffffffffffffffffffff1681526020019081526020016000206000828254611c7e919061344d565b925050819055508573ffffffffffffffffffffffffffffffffffffffff168773ffffffffffffffffffffffffffffffffffffffff168373ffffffffffffffffffffffffffffffffffffffff167fc3d58168c5ae7397731d063d5bbf3d657854427343f4c083240f7aacaa2d0f628888604051611cfb9291906132d4565b60405180910390a4611d118288888888886121ec565b50505050505050565b600073ffffffffffffffffffffffffffffffffffffffff168373ffffffffffffffffffffffffffffffffffffffff161415611d8a576040517f08c379a0000000000000000000000000000000000000000000000000000000008152600401611d81906131d9565b60405180910390fd5b6000611d94610de6565b9050611dc481856000611da687612126565b611daf87612126565b60405180602001604052806000815250611f37565b600080600085815260200190815260200160002060008673ffffffffffffffffffffffffffffffffffffffff1673ffffffffffffffffffffffffffffffffffffffff16815260200190815260200160002054905082811015611e5b576040517f08c379a0000000000000000000000000000000000000000000000000000000008152600401611e5290613159565b60405180910390fd5b82810360008086815260200190815260200160002060008773ffffffffffffffffffffffffffffffffffffffff1673ffffffffffffffffffffffffffffffffffffffff16815260200190815260200160002081905550600073ffffffffffffffffffffffffffffffffffffffff168573ffffffffffffffffffffffffffffffffffffffff168373ffffffffffffffffffffffffffffffffffffffff167fc3d58168c5ae7397731d063d5bbf3d657854427343f4c083240f7aacaa2d0f628787604051611f289291906132d4565b60405180910390a45050505050565b505050505050565b611f5e8473ffffffffffffffffffffffffffffffffffffffff166123d3565b1561211e578373ffffffffffffffffffffffffffffffffffffffff1663bc197c8187878686866040518663ffffffff1660e01b8152600401611fa4959493929190612f81565b602060405180830381600087803b158015611fbe57600080fd5b505af1925050508015611fef57506040513d601f19601f82011682018060405250810190611fec9190612ba2565b60015b61209557611ffb613692565b806308c379a014156120585750612010613b4d565b8061201b575061205a565b806040517f08c379a000000000000000000000000000000000000000000000000000000000815260040161204f91906130b7565b60405180910390fd5b505b6040517f08c379a000000000000000000000000000000000000000000000000000000000815260040161208c906130d9565b60405180910390fd5b63bc197c8160e01b7bffffffffffffffffffffffffffffffffffffffffffffffffffffffff1916817bffffffffffffffffffffffffffffffffffffffffffffffffffffffff19161461211c576040517f08c379a0000000000000000000000000000000000000000000000000000000008152600401612113906130f9565b60405180910390fd5b505b505050505050565b60606000600167ffffffffffffffff81111561216b577f4e487b7100000000000000000000000000000000000000000000000000000000600052604160045260246000fd5b6040519080825280602002602001820160405280156121995781602001602082028036833780820191505090505b50905082816000815181106121d7577f4e487b7100000000000000000000000000000000000000000000000000000000600052603260045260246000fd5b60200260200101818152505080915050919050565b61220b8473ffffffffffffffffffffffffffffffffffffffff166123d3565b156123cb578373ffffffffffffffffffffffffffffffffffffffff1663f23a6e6187878686866040518663ffffffff1660e01b8152600401612251959493929190612fe9565b602060405180830381600087803b15801561226b57600080fd5b505af192505050801561229c57506040513d601f19601f820116820180604052508101906122999190612ba2565b60015b612342576122a8613692565b806308c379a0141561230557506122bd613b4d565b806122c85750612307565b806040517f08c379a00000000000000000000000000000000000000000000000000000000081526004016122fc91906130b7565b60405180910390fd5b505b6040517f08c379a0000000000000000000000000000000000000000000000000000000008152600401612339906130d9565b60405180910390fd5b63f23a6e6160e01b7bffffffffffffffffffffffffffffffffffffffffffffffffffffffff1916817bffffffffffffffffffffffffffffffffffffffffffffffffffffffff1916146123c9576040517f08c379a00000000000000000000000000000000000000000000000000000000081526004016123c0906130f9565b60405180910390fd5b505b505050505050565b600080823b905060008111915050919050565b8280546123f290613559565b90600052602060002090601f016020900481019282612414576000855561245b565b82601f1061242d57805160ff191683800117855561245b565b8280016001018555821561245b579182015b8281111561245a57825182559160200191906001019061243f565b5b509050612468919061246c565b5090565b5b8082111561248557600081600090555060010161246d565b5090565b600061249c61249784613322565b6132fd565b905080838252602082019050828560208602820111156124bb57600080fd5b60005b858110156124eb57816124d188826125dd565b8452602084019350602083019250506001810190506124be565b5050509392505050565b60006125086125038461334e565b6132fd565b9050808382526020820190508285602086028201111561252757600080fd5b60005b85811015612557578161253d88826126d9565b84526020840193506020830192505060018101905061252a565b5050509392505050565b600061257461256f8461337a565b6132fd565b90508281526020810184848401111561258c57600080fd5b612597848285613517565b509392505050565b60006125b26125ad846133ab565b6132fd565b9050828152602081018484840111156125ca57600080fd5b6125d5848285613517565b509392505050565b6000813590506125ec81613be3565b92915050565b600082601f83011261260357600080fd5b8135612613848260208601612489565b91505092915050565b600082601f83011261262d57600080fd5b813561263d8482602086016124f5565b91505092915050565b60008135905061265581613bfa565b92915050565b60008135905061266a81613c11565b92915050565b60008151905061267f81613c11565b92915050565b600082601f83011261269657600080fd5b81356126a6848260208601612561565b91505092915050565b600082601f8301126126c057600080fd5b81356126d084826020860161259f565b91505092915050565b6000813590506126e881613c28565b92915050565b60006020828403121561270057600080fd5b600061270e848285016125dd565b91505092915050565b6000806040838503121561272a57600080fd5b6000612738858286016125dd565b9250506020612749858286016125dd565b9150509250929050565b600080600080600060a0868803121561276b57600080fd5b6000612779888289016125dd565b955050602061278a888289016125dd565b945050604086013567ffffffffffffffff8111156127a757600080fd5b6127b38882890161261c565b935050606086013567ffffffffffffffff8111156127d057600080fd5b6127dc8882890161261c565b925050608086013567ffffffffffffffff8111156127f957600080fd5b61280588828901612685565b9150509295509295909350565b600080600080600060a0868803121561282a57600080fd5b6000612838888289016125dd565b9550506020612849888289016125dd565b945050604061285a888289016126d9565b935050606061286b888289016126d9565b925050608086013567ffffffffffffffff81111561288857600080fd5b61289488828901612685565b9150509295509295909350565b6000806000606084860312156128b657600080fd5b60006128c4868287016125dd565b935050602084013567ffffffffffffffff8111156128e157600080fd5b6128ed8682870161261c565b925050604084013567ffffffffffffffff81111561290a57600080fd5b6129168682870161261c565b9150509250925092565b6000806000806080858703121561293657600080fd5b6000612944878288016125dd565b945050602085013567ffffffffffffffff81111561296157600080fd5b61296d8782880161261c565b935050604085013567ffffffffffffffff81111561298a57600080fd5b6129968782880161261c565b925050606085013567ffffffffffffffff8111156129b357600080fd5b6129bf87828801612685565b91505092959194509250565b600080604083850312156129de57600080fd5b60006129ec858286016125dd565b92505060206129fd85828601612646565b9150509250929050565b60008060408385031215612a1a57600080fd5b6000612a28858286016125dd565b9250506020612a39858286016126d9565b9150509250929050565b600080600060608486031215612a5857600080fd5b6000612a66868287016125dd565b9350506020612a77868287016126d9565b9250506040612a88868287016126d9565b9150509250925092565b60008060008060808587031215612aa857600080fd5b6000612ab6878288016125dd565b9450506020612ac7878288016126d9565b9350506040612ad8878288016126d9565b925050606085013567ffffffffffffffff811115612af557600080fd5b612b0187828801612685565b91505092959194509250565b60008060408385031215612b2057600080fd5b600083013567ffffffffffffffff811115612b3a57600080fd5b612b46858286016125f2565b925050602083013567ffffffffffffffff811115612b6357600080fd5b612b6f8582860161261c565b9150509250929050565b600060208284031215612b8b57600080fd5b6000612b998482850161265b565b91505092915050565b600060208284031215612bb457600080fd5b6000612bc284828501612670565b91505092915050565b600060208284031215612bdd57600080fd5b600082013567ffffffffffffffff811115612bf757600080fd5b612c03848285016126af565b91505092915050565b600060208284031215612c1e57600080fd5b6000612c2c848285016126d9565b91505092915050565b6000612c418383612f48565b60208301905092915050565b612c56816134a3565b82525050565b6000612c67826133ec565b612c71818561341a565b9350612c7c836133dc565b8060005b83811015612cad578151612c948882612c35565b9750612c9f8361340d565b925050600181019050612c80565b5085935050505092915050565b612cc3816134b5565b82525050565b6000612cd4826133f7565b612cde818561342b565b9350612cee818560208601613526565b612cf7816136b4565b840191505092915050565b6000612d0d82613402565b612d17818561343c565b9350612d27818560208601613526565b612d30816136b4565b840191505092915050565b6000612d4860348361343c565b9150612d53826136d2565b604082019050919050565b6000612d6b60288361343c565b9150612d7682613721565b604082019050919050565b6000612d8e602b8361343c565b9150612d9982613770565b604082019050919050565b6000612db160268361343c565b9150612dbc826137bf565b604082019050919050565b6000612dd460248361343c565b9150612ddf8261380e565b604082019050919050565b6000612df760298361343c565b9150612e028261385d565b604082019050919050565b6000612e1a60258361343c565b9150612e25826138ac565b604082019050919050565b6000612e3d60328361343c565b9150612e48826138fb565b604082019050919050565b6000612e6060238361343c565b9150612e6b8261394a565b604082019050919050565b6000612e83602a8361343c565b9150612e8e82613999565b604082019050919050565b6000612ea660208361343c565b9150612eb1826139e8565b602082019050919050565b6000612ec960298361343c565b9150612ed482613a11565b604082019050919050565b6000612eec60298361343c565b9150612ef782613a60565b604082019050919050565b6000612f0f60288361343c565b9150612f1a82613aaf565b604082019050919050565b6000612f3260218361343c565b9150612f3d82613afe565b604082019050919050565b612f518161350d565b82525050565b612f608161350d565b82525050565b6000602082019050612f7b6000830184612c4d565b92915050565b600060a082019050612f966000830188612c4d565b612fa36020830187612c4d565b8181036040830152612fb58186612c5c565b90508181036060830152612fc98185612c5c565b90508181036080830152612fdd8184612cc9565b90509695505050505050565b600060a082019050612ffe6000830188612c4d565b61300b6020830187612c4d565b6130186040830186612f57565b6130256060830185612f57565b81810360808301526130378184612cc9565b90509695505050505050565b6000602082019050818103600083015261305d8184612c5c565b905092915050565b6000604082019050818103600083015261307f8185612c5c565b905081810360208301526130938184612c5c565b90509392505050565b60006020820190506130b16000830184612cba565b92915050565b600060208201905081810360008301526130d18184612d02565b905092915050565b600060208201905081810360008301526130f281612d3b565b9050919050565b6000602082019050818103600083015261311281612d5e565b9050919050565b6000602082019050818103600083015261313281612d81565b9050919050565b6000602082019050818103600083015261315281612da4565b9050919050565b6000602082019050818103600083015261317281612dc7565b9050919050565b6000602082019050818103600083015261319281612dea565b9050919050565b600060208201905081810360008301526131b281612e0d565b9050919050565b600060208201905081810360008301526131d281612e30565b9050919050565b600060208201905081810360008301526131f281612e53565b9050919050565b6000602082019050818103600083015261321281612e76565b9050919050565b6000602082019050818103600083015261323281612e99565b9050919050565b6000602082019050818103600083015261325281612ebc565b9050919050565b6000602082019050818103600083015261327281612edf565b9050919050565b6000602082019050818103600083015261329281612f02565b9050919050565b600060208201905081810360008301526132b281612f25565b9050919050565b60006020820190506132ce6000830184612f57565b92915050565b60006040820190506132e96000830185612f57565b6132f66020830184612f57565b9392505050565b6000613307613318565b9050613313828261358b565b919050565b6000604051905090565b600067ffffffffffffffff82111561333d5761333c613663565b5b602082029050602081019050919050565b600067ffffffffffffffff82111561336957613368613663565b5b602082029050602081019050919050565b600067ffffffffffffffff82111561339557613394613663565b5b61339e826136b4565b9050602081019050919050565b600067ffffffffffffffff8211156133c6576133c5613663565b5b6133cf826136b4565b9050602081019050919050565b6000819050602082019050919050565b600081519050919050565b600081519050919050565b600081519050919050565b6000602082019050919050565b600082825260208201905092915050565b600082825260208201905092915050565b600082825260208201905092915050565b60006134588261350d565b91506134638361350d565b9250827fffffffffffffffffffffffffffffffffffffffffffffffffffffffffffffffff0382111561349857613497613605565b5b828201905092915050565b60006134ae826134ed565b9050919050565b60008115159050919050565b60007fffffffff0000000000000000000000000000000000000000000000000000000082169050919050565b600073ffffffffffffffffffffffffffffffffffffffff82169050919050565b6000819050919050565b82818337600083830152505050565b60005b83811015613544578082015181840152602081019050613529565b83811115613553576000848401525b50505050565b6000600282049050600182168061357157607f821691505b6020821081141561358557613584613634565b5b50919050565b613594826136b4565b810181811067ffffffffffffffff821117156135b3576135b2613663565b5b80604052505050565b60006135c78261350d565b91507fffffffffffffffffffffffffffffffffffffffffffffffffffffffffffffffff8214156135fa576135f9613605565b5b600182019050919050565b7f4e487b7100000000000000000000000000000000000000000000000000000000600052601160045260246000fd5b7f4e487b7100000000000000000000000000000000000000000000000000000000600052602260045260246000fd5b7f4e487b7100000000000000000000000000000000000000000000000000000000600052604160045260246000fd5b600060033d11156136b15760046000803e6136ae6000516136c5565b90505b90565b6000601f19601f8301169050919050565b60008160e01c9050919050565b7f455243313135353a207472616e7366657220746f206e6f6e204552433131353560008201527f526563656976657220696d706c656d656e746572000000000000000000000000602082015250565b7f455243313135353a204552433131353552656365697665722072656a6563746560008201527f6420746f6b656e73000000000000000000000000000000000000000000000000602082015250565b7f455243313135353a2062616c616e636520717565727920666f7220746865207a60008201527f65726f2061646472657373000000000000000000000000000000000000000000602082015250565b7f4f776e61626c653a206e6577206f776e657220697320746865207a65726f206160008201527f6464726573730000000000000000000000000000000000000000000000000000602082015250565b7f455243313135353a206275726e20616d6f756e7420657863656564732062616c60008201527f616e636500000000000000000000000000000000000000000000000000000000602082015250565b7f455243313135353a2063616c6c6572206973206e6f74206f776e6572206e6f7260008201527f20617070726f7665640000000000000000000000000000000000000000000000602082015250565b7f455243313135353a207472616e7366657220746f20746865207a65726f20616460008201527f6472657373000000000000000000000000000000000000000000000000000000602082015250565b7f455243313135353a207472616e736665722063616c6c6572206973206e6f742060008201527f6f776e6572206e6f7220617070726f7665640000000000000000000000000000602082015250565b7f455243313135353a206275726e2066726f6d20746865207a65726f206164647260008201527f6573730000000000000000000000000000000000000000000000000000000000602082015250565b7f455243313135353a20696e73756666696369656e742062616c616e636520666f60008201527f72207472616e7366657200000000000000000000000000000000000000000000602082015250565b7f4f776e61626c653a2063616c6c6572206973206e6f7420746865206f776e6572600082015250565b7f455243313135353a2073657474696e6720617070726f76616c2073746174757360008201527f20666f722073656c660000000000000000000000000000000000000000000000602082015250565b7f455243313135353a206163636f756e747320616e6420696473206c656e67746860008201527f206d69736d617463680000000000000000000000000000000000000000000000602082015250565b7f455243313135353a2069647320616e6420616d6f756e7473206c656e6774682060008201527f6d69736d61746368000000000000000000000000000000000000000000000000602082015250565b7f455243313135353a206d696e7420746f20746865207a65726f2061646472657360008201527f7300000000000000000000000000000000000000000000000000000000000000602082015250565b600060443d1015613b5d57613be0565b613b65613318565b60043d036004823e80513d602482011167ffffffffffffffff82111715613b8d575050613be0565b808201805167ffffffffffffffff811115613bab5750505050613be0565b80602083010160043d038501811115613bc8575050505050613be0565b613bd78260200185018661358b565b82955050505050505b90565b613bec816134a3565b8114613bf757600080fd5b50565b613c03816134b5565b8114613c0e57600080fd5b50565b613c1a816134c1565b8114613c2557600080fd5b50565b613c318161350d565b8114613c3c57600080fd5b5056fea2646970667358221220a90a8af6d6d9a61737afc9b7577de60ee3e7a92ee73d5f02a018ad68a8c9504164736f6c63430008020033",
  "immutableReferences": {},
  "source": "// SPDX-License-Identifier: MIT\npragma solidity ^0.8.2;\n\nimport \"@openzeppelin/contracts/token/ERC1155/ERC1155.sol\";\nimport \"@openzeppelin/contracts/access/Ownable.sol\";\nimport \"@openzeppelin/contracts/token/ERC1155/extensions/ERC1155Burnable.sol\";\n\ncontract property is ERC1155, Ownable, ERC1155Burnable {\n    constructor() ERC1155(\"\") {}\n\n    function setURI(string memory newuri) public onlyOwner {\n        _setURI(newuri);\n    }\n\n    function mint(address account, uint256 id, uint256 amount, bytes memory data)\n        public\n        onlyOwner\n    {\n        _mint(account, id, amount, data);\n    }\n\n    function mintBatch(address to, uint256[] memory ids, uint256[] memory amounts, bytes memory data)\n        public\n        onlyOwner\n    {\n        _mintBatch(to, ids, amounts, data);\n    }\n}\n",
  "sourcePath": "C:\\s_U\\sheepnap-ui\\src\\contracts\\property.sol",
  "compiler": {
    "name": "solc",
    "version": "0.8.2+commit.661d1103.Emscripten.clang"
  },
  "schemaVersion": "3.4.3",
  "updatedAt": "2021-12-10T19:46:43.040Z",
  "devdoc": {
    "kind": "dev",
    "methods": {
      "balanceOf(address,uint256)": {
        "details": "See {IERC1155-balanceOf}. Requirements: - `account` cannot be the zero address."
      },
      "balanceOfBatch(address[],uint256[])": {
        "details": "See {IERC1155-balanceOfBatch}. Requirements: - `accounts` and `ids` must have the same length."
      },
      "isApprovedForAll(address,address)": {
        "details": "See {IERC1155-isApprovedForAll}."
      },
      "owner()": {
        "details": "Returns the address of the current owner."
      },
      "renounceOwnership()": {
        "details": "Leaves the contract without owner. It will not be possible to call `onlyOwner` functions anymore. Can only be called by the current owner. NOTE: Renouncing ownership will leave the contract without an owner, thereby removing any functionality that is only available to the owner."
      },
      "safeBatchTransferFrom(address,address,uint256[],uint256[],bytes)": {
        "details": "See {IERC1155-safeBatchTransferFrom}."
      },
      "safeTransferFrom(address,address,uint256,uint256,bytes)": {
        "details": "See {IERC1155-safeTransferFrom}."
      },
      "setApprovalForAll(address,bool)": {
        "details": "See {IERC1155-setApprovalForAll}."
      },
      "supportsInterface(bytes4)": {
        "details": "See {IERC165-supportsInterface}."
      },
      "transferOwnership(address)": {
        "details": "Transfers ownership of the contract to a new account (`newOwner`). Can only be called by the current owner."
      },
      "uri(uint256)": {
        "details": "See {IERC1155MetadataURI-uri}. This implementation returns the same URI for *all* token types. It relies on the token type ID substitution mechanism https://eips.ethereum.org/EIPS/eip-1155#metadata[defined in the EIP]. Clients calling this function must replace the `\\{id\\}` substring with the actual token type ID."
      }
    },
    "version": 1
  },
  "userdoc": {
    "kind": "user",
    "methods": {},
    "version": 1
  }
}