{
    "contractName": "Property",
    "abi": [
        {
            "inputs": [],
            "stateMutability": "nonpayable",
            "type": "constructor"
        },
        {
            "inputs": [],
            "name": "getAddress",
            "outputs": [
                {
                    "internalType": "address",
                    "name": "",
                    "type": "address"
                }
            ],
            "stateMutability": "view",
            "type": "function"
        }
    ],
    "bytecode": "0x608060405234801561001057600080fd5b50336000806101000a81548173ffffffffffffffffffffffffffffffffffffffff021916908373ffffffffffffffffffffffffffffffffffffffff16021790555060db8061005f6000396000f3fe6080604052348015600f57600080fd5b506004361060285760003560e01c806338cc483114602d575b600080fd5b60336047565b604051603e9190608c565b60405180910390f35b600030905090565b600073ffffffffffffffffffffffffffffffffffffffff82169050919050565b6000607882604f565b9050919050565b608681606f565b82525050565b6000602082019050609f6000830184607f565b9291505056fea2646970667358221220ed50d4febe4f875780f7da73a45e848c58827b2dcdadfc8d26405b7453b035ca64736f6c634300080b0033",
    "immutableReferences": {},
    "source": "// SPDX-License-Identifier: GPL-3.0\n\npragma solidity >=0.7.0 <0.9.0;\n\n/**\n * @title Accomodation Contract.\n * @dev Set & change owner\n */\ncontract Property\n{\n    address owner;\n    constructor() \n    {\n        owner = msg.sender;\n    }\n\n    string private name;\n    string private staticDataRefence;\n\n    struct Coordinate {\n        uint256 lat;\n        uint256 long;\n    }\n\n    function getAddress() public view returns (address) {\n        return address(this);\n    }    \n\n    /// @notice Explain to an end user what this does\n    /// @dev Explain to a developer any extra details\n    /// @param Documents a parameter just like in doxygen (must be followed by parameter name)\n    /// @return Documents the return variables of a contract’s function state variable\n    /// @inheritdoc\tCopies all missing tags from the base function (must be followed by the contract name)\n    \n}",
    "sourcePath": "/Users/santiagomarinrojas/Documents/GitHub/sheepnap-contracts/contracts/Property.sol",
    "compiler": {
        "name": "solc",
        "version": "0.8.11+commit.d7f03943.Emscripten.clang"
    },
    "schemaVersion": "3.4.3",
    "updatedAt": "2022-01-30T01:48:10.445Z",
    "devdoc": {
        "details": "Set & change owner",
        "kind": "dev",
        "methods": {},
        "title": "Accomodation Contract.",
        "version": 1
    },
    "userdoc": {
        "kind": "user",
        "methods": {},
        "version": 1
    }
}