{
  "contractName": "SheepnapDAO",
  "abi": [
    {
      "inputs": [
        {
          "internalType": "address",
          "name": "_tokenaddress",
          "type": "address"
        },
        {
          "internalType": "address",
          "name": "_badgeaddress",
          "type": "address"
        }
      ],
      "stateMutability": "nonpayable",
      "type": "constructor"
    },
    {
      "anonymous": false,
      "inputs": [
        {
          "indexed": false,
          "internalType": "address",
          "name": "_accommodation",
          "type": "address"
        }
      ],
      "name": "ApprovalRequestCreated",
      "type": "event"
    },
    {
      "anonymous": false,
      "inputs": [
        {
          "indexed": true,
          "internalType": "address",
          "name": "previousOwner",
          "type": "address"
        },
        {
          "indexed": true,
          "internalType": "address",
          "name": "newOwner",
          "type": "address"
        }
      ],
      "name": "OwnershipTransferred",
      "type": "event"
    },
    {
      "anonymous": false,
      "inputs": [
        {
          "indexed": false,
          "internalType": "address",
          "name": "token",
          "type": "address"
        },
        {
          "indexed": false,
          "internalType": "uint256",
          "name": "amount",
          "type": "uint256"
        }
      ],
      "name": "Recovered",
      "type": "event"
    },
    {
      "anonymous": false,
      "inputs": [
        {
          "indexed": false,
          "internalType": "uint256",
          "name": "reward",
          "type": "uint256"
        }
      ],
      "name": "RewardAdded",
      "type": "event"
    },
    {
      "anonymous": false,
      "inputs": [
        {
          "indexed": true,
          "internalType": "address",
          "name": "user",
          "type": "address"
        },
        {
          "indexed": false,
          "internalType": "uint256",
          "name": "reward",
          "type": "uint256"
        }
      ],
      "name": "RewardPaid",
      "type": "event"
    },
    {
      "anonymous": false,
      "inputs": [
        {
          "indexed": false,
          "internalType": "uint256",
          "name": "newDuration",
          "type": "uint256"
        }
      ],
      "name": "RewardsDurationUpdated",
      "type": "event"
    },
    {
      "anonymous": false,
      "inputs": [
        {
          "indexed": true,
          "internalType": "address",
          "name": "user",
          "type": "address"
        },
        {
          "indexed": false,
          "internalType": "uint256",
          "name": "amount",
          "type": "uint256"
        }
      ],
      "name": "Staked",
      "type": "event"
    },
    {
      "anonymous": false,
      "inputs": [
        {
          "indexed": true,
          "internalType": "address",
          "name": "user",
          "type": "address"
        },
        {
          "indexed": false,
          "internalType": "bool",
          "name": "vote",
          "type": "bool"
        }
      ],
      "name": "Voting",
      "type": "event"
    },
    {
      "anonymous": false,
      "inputs": [
        {
          "indexed": false,
          "internalType": "address",
          "name": "_staker",
          "type": "address"
        }
      ],
      "name": "WithdrawRewards",
      "type": "event"
    },
    {
      "anonymous": false,
      "inputs": [
        {
          "indexed": true,
          "internalType": "address",
          "name": "user",
          "type": "address"
        },
        {
          "indexed": false,
          "internalType": "uint256",
          "name": "amount",
          "type": "uint256"
        }
      ],
      "name": "Withdrawn",
      "type": "event"
    },
    {
      "inputs": [],
      "name": "getStakeAmount",
      "outputs": [
        {
          "internalType": "uint256",
          "name": "",
          "type": "uint256"
        }
      ],
      "stateMutability": "view",
      "type": "function"
    },
    {
      "inputs": [],
      "name": "owner",
      "outputs": [
        {
          "internalType": "address",
          "name": "",
          "type": "address"
        }
      ],
      "stateMutability": "view",
      "type": "function"
    },
    {
      "inputs": [],
      "name": "renounceOwnership",
      "outputs": [],
      "stateMutability": "nonpayable",
      "type": "function"
    },
    {
      "inputs": [
        {
          "internalType": "uint256",
          "name": "_stakingamount",
          "type": "uint256"
        }
      ],
      "name": "stake",
      "outputs": [],
      "stateMutability": "nonpayable",
      "type": "function"
    },
    {
      "inputs": [
        {
          "internalType": "address",
          "name": "newOwner",
          "type": "address"
        }
      ],
      "name": "transferOwnership",
      "outputs": [],
      "stateMutability": "nonpayable",
      "type": "function"
    },
    {
      "inputs": [],
      "name": "unstake",
      "outputs": [],
      "stateMutability": "nonpayable",
      "type": "function"
    },
    {
      "inputs": [],
      "name": "getTokenAmountForApprovalRequest",
      "outputs": [
        {
          "internalType": "uint256",
          "name": "",
          "type": "uint256"
        }
      ],
      "stateMutability": "view",
      "type": "function"
    },
    {
      "inputs": [],
      "name": "getApprovalRequestDaysToVote",
      "outputs": [
        {
          "internalType": "uint256",
          "name": "",
          "type": "uint256"
        }
      ],
      "stateMutability": "view",
      "type": "function"
    },
    {
      "inputs": [],
      "name": "getApprovalPercentage",
      "outputs": [
        {
          "internalType": "uint256",
          "name": "",
          "type": "uint256"
        }
      ],
      "stateMutability": "view",
      "type": "function"
    },
    {
      "inputs": [],
      "name": "getMinimalPercentageVoters",
      "outputs": [
        {
          "internalType": "uint256",
          "name": "",
          "type": "uint256"
        }
      ],
      "stateMutability": "view",
      "type": "function"
    },
    {
      "inputs": [
        {
          "internalType": "address",
          "name": "_propertyaddress",
          "type": "address"
        }
      ],
      "name": "getApprovalRequestInfo",
      "outputs": [
        {
          "components": [
            {
              "internalType": "bool",
              "name": "isApproved",
              "type": "bool"
            },
            {
              "internalType": "uint256",
              "name": "totalYes",
              "type": "uint256"
            },
            {
              "internalType": "uint256",
              "name": "totalVoters",
              "type": "uint256"
            },
            {
              "internalType": "uint256",
              "name": "registrationDate",
              "type": "uint256"
            },
            {
              "internalType": "bool",
              "name": "activeVoting",
              "type": "bool"
            },
            {
              "internalType": "uint256",
              "name": "treasureAmount",
              "type": "uint256"
            }
          ],
          "internalType": "struct SheepnapDAO.Property",
          "name": "",
          "type": "tuple"
        }
      ],
      "stateMutability": "view",
      "type": "function"
    },
    {
      "inputs": [
        {
          "internalType": "uint256",
          "name": "_id",
          "type": "uint256"
        },
        {
          "internalType": "uint256",
          "name": "_amount",
          "type": "uint256"
        }
      ],
      "name": "addNewBadgePrice",
      "outputs": [],
      "stateMutability": "nonpayable",
      "type": "function"
    },
    {
      "inputs": [
        {
          "internalType": "address",
          "name": "_propertyaddress",
          "type": "address"
        }
      ],
      "name": "getPropertyActiveVoting",
      "outputs": [
        {
          "internalType": "bool",
          "name": "",
          "type": "bool"
        }
      ],
      "stateMutability": "view",
      "type": "function"
    },
    {
      "inputs": [
        {
          "internalType": "address",
          "name": "_propertyaddress",
          "type": "address"
        }
      ],
      "name": "approvalRequest",
      "outputs": [],
      "stateMutability": "nonpayable",
      "type": "function"
    },
    {
      "inputs": [
        {
          "internalType": "address",
          "name": "_propertyaddress",
          "type": "address"
        },
        {
          "internalType": "bool",
          "name": "_vote",
          "type": "bool"
        }
      ],
      "name": "vote",
      "outputs": [],
      "stateMutability": "nonpayable",
      "type": "function"
    },
    {
      "inputs": [
        {
          "internalType": "address",
          "name": "_stakerAddress",
          "type": "address"
        }
      ],
      "name": "getVotingPower",
      "outputs": [
        {
          "internalType": "uint256",
          "name": "",
          "type": "uint256"
        }
      ],
      "stateMutability": "view",
      "type": "function"
    },
    {
      "inputs": [
        {
          "internalType": "address",
          "name": "_propertyaddress",
          "type": "address"
        }
      ],
      "name": "finalizevoting",
      "outputs": [],
      "stateMutability": "nonpayable",
      "type": "function"
    },
    {
      "inputs": [
        {
          "internalType": "address",
          "name": "_propertyaddress",
          "type": "address"
        }
      ],
      "name": "withdrawvotingrewards",
      "outputs": [],
      "stateMutability": "nonpayable",
      "type": "function"
    },
    {
      "inputs": [
        {
          "internalType": "uint256",
          "name": "id",
          "type": "uint256"
        }
      ],
      "name": "mintForBuy",
      "outputs": [],
      "stateMutability": "nonpayable",
      "type": "function"
    }
  ],
  "bytecode": "0x608060405268056bc75e2d63100000600855600a6009556032600a55601e600b553480156200002d57600080fd5b506040516200264e3803806200264e833981810160405281019062000053919062000277565b81806000806101000a81548173ffffffffffffffffffffffffffffffffffffffff021916908373ffffffffffffffffffffffffffffffffffffffff16021790555050620000b5620000a96200013f60201b60201c565b6200014760201b60201c565b81600660006101000a81548173ffffffffffffffffffffffffffffffffffffffff021916908373ffffffffffffffffffffffffffffffffffffffff16021790555080600760006101000a81548173ffffffffffffffffffffffffffffffffffffffff021916908373ffffffffffffffffffffffffffffffffffffffff1602179055505050620002be565b600033905090565b6000600560009054906101000a900473ffffffffffffffffffffffffffffffffffffffff16905081600560006101000a81548173ffffffffffffffffffffffffffffffffffffffff021916908373ffffffffffffffffffffffffffffffffffffffff1602179055508173ffffffffffffffffffffffffffffffffffffffff168173ffffffffffffffffffffffffffffffffffffffff167f8be0079c531659141344cd1fd0a4f28419497f9722a3daafe3b4186f6b6457e060405160405180910390a35050565b600080fd5b600073ffffffffffffffffffffffffffffffffffffffff82169050919050565b60006200023f8262000212565b9050919050565b620002518162000232565b81146200025d57600080fd5b50565b600081519050620002718162000246565b92915050565b600080604083850312156200029157620002906200020d565b5b6000620002a18582860162000260565b9250506020620002b48582860162000260565b9150509250929050565b61238080620002ce6000396000f3fe608060405234801561001057600080fd5b50600436106101215760003560e01c80638da5cb5b116100ad578063bd041c4d11610071578063bd041c4d146102ce578063ca6662ef146102ea578063db4d210314610306578063e233e27514610324578063f2fde38b1461034257610121565b80638da5cb5b1461022c57806393f445641461024a578063a694fc3a14610266578063b47de4dd14610282578063bb4d44361461029e57610121565b80635f04176c116100f45780635f04176c146101865780635faae62e146101a457806369562197146101d4578063715018a614610204578063722580b61461020e57610121565b80632def66201461012657806330d6f63e1461013057806339ccb9571461014c5780634a21652c1461016a575b600080fd5b61012e61035e565b005b61014a600480360381019061014591906117e5565b610525565b005b610154610824565b604051610161919061182b565b60405180910390f35b610184600480360381019061017f91906117e5565b61082e565b005b61018e610a00565b60405161019b919061182b565b60405180910390f35b6101be60048036038101906101b991906117e5565b610a0a565b6040516101cb91906118eb565b60405180910390f35b6101ee60048036038101906101e991906117e5565b610ac1565b6040516101fb9190611915565b60405180910390f35b61020c610b1a565b005b610216610ba2565b604051610223919061182b565b60405180910390f35b610234610bec565b604051610241919061193f565b60405180910390f35b610264600480360381019061025f9190611986565b610c16565b005b610280600480360381019061027b91906119c6565b610cae565b005b61029c600480360381019061029791906117e5565b610e5e565b005b6102b860048036038101906102b391906117e5565b610ff8565b6040516102c5919061182b565b60405180910390f35b6102e860048036038101906102e39190611a1f565b611044565b005b61030460048036038101906102ff91906119c6565b6112f1565b005b61030e6114ea565b60405161031b919061182b565b60405180910390f35b61032c6114f4565b604051610339919061182b565b60405180910390f35b61035c600480360381019061035791906117e5565b6114fe565b005b600260003373ffffffffffffffffffffffffffffffffffffffff1673ffffffffffffffffffffffffffffffffffffffff16815260200190815260200160002060009054906101000a900460ff166103ea576040517f08c379a00000000000000000000000000000000000000000000000000000000081526004016103e190611abc565b60405180910390fd5b60008054906101000a900473ffffffffffffffffffffffffffffffffffffffff1673ffffffffffffffffffffffffffffffffffffffff1663a9059cbb30600160003373ffffffffffffffffffffffffffffffffffffffff1673ffffffffffffffffffffffffffffffffffffffff168152602001908152602001600020600001546040518363ffffffff1660e01b8152600401610487929190611adc565b6020604051808303816000875af11580156104a6573d6000803e3d6000fd5b505050506040513d601f19601f820116820180604052508101906104ca9190611b1a565b506000600260003373ffffffffffffffffffffffffffffffffffffffff1673ffffffffffffffffffffffffffffffffffffffff16815260200190815260200160002060006101000a81548160ff021916908315150217905550565b600c60008273ffffffffffffffffffffffffffffffffffffffff1673ffffffffffffffffffffffffffffffffffffffff16815260200190815260200160002060040160009054906101000a900460ff16156105b5576040517f08c379a00000000000000000000000000000000000000000000000000000000081526004016105ac90611bb9565b60405180910390fd5b600854600660009054906101000a900473ffffffffffffffffffffffffffffffffffffffff1673ffffffffffffffffffffffffffffffffffffffff166370a08231336040518263ffffffff1660e01b8152600401610613919061193f565b602060405180830381865afa158015610630573d6000803e3d6000fd5b505050506040513d601f19601f820116820180604052508101906106549190611bee565b1015610695576040517f08c379a000000000000000000000000000000000000000000000000000000000815260040161068c90611c8d565b60405180910390fd5b60006040518060c001604052806000151581526020016000815260200160008152602001428152602001600115158152602001600854815250905080600c60008473ffffffffffffffffffffffffffffffffffffffff1673ffffffffffffffffffffffffffffffffffffffff16815260200190815260200160002060008201518160000160006101000a81548160ff02191690831515021790555060208201518160010155604082015181600201556060820151816003015560808201518160040160006101000a81548160ff02191690831515021790555060a08201518160050155905050600660009054906101000a900473ffffffffffffffffffffffffffffffffffffffff1673ffffffffffffffffffffffffffffffffffffffff166323b872dd33306008546040518463ffffffff1660e01b81526004016107dc93929190611cad565b6020604051808303816000875af11580156107fb573d6000803e3d6000fd5b505050506040513d601f19601f8201168201806040525081019061081f9190611b1a565b505050565b6000600b54905090565b600c60008273ffffffffffffffffffffffffffffffffffffffff1673ffffffffffffffffffffffffffffffffffffffff16815260200190815260200160002060040160009054906101000a900460ff166108bd576040517f08c379a00000000000000000000000000000000000000000000000000000000081526004016108b490611d30565b60405180910390fd5b610908600c60008373ffffffffffffffffffffffffffffffffffffffff1673ffffffffffffffffffffffffffffffffffffffff168152602001908152602001600020600301546115f6565b610947576040517f08c379a000000000000000000000000000000000000000000000000000000000815260040161093e90611d9c565b60405180910390fd5b6000600c60008373ffffffffffffffffffffffffffffffffffffffff1673ffffffffffffffffffffffffffffffffffffffff1681526020019081526020016000209050600a5461099f8260010154836002015461161e565b1180156109bc5750600b546109ba826002015460035461161e565b115b156109df5760018160000160006101000a81548160ff0219169083151502179055505b60008160040160006101000a81548160ff0219169083151502179055505050565b6000600954905090565b610a12611748565b600c60008373ffffffffffffffffffffffffffffffffffffffff1673ffffffffffffffffffffffffffffffffffffffff1681526020019081526020016000206040518060c00160405290816000820160009054906101000a900460ff161515151581526020016001820154815260200160028201548152602001600382015481526020016004820160009054906101000a900460ff161515151581526020016005820154815250509050919050565b6000600c60008373ffffffffffffffffffffffffffffffffffffffff1673ffffffffffffffffffffffffffffffffffffffff16815260200190815260200160002060040160009054906101000a900460ff169050919050565b610b2261164e565b73ffffffffffffffffffffffffffffffffffffffff16610b40610bec565b73ffffffffffffffffffffffffffffffffffffffff1614610b96576040517f08c379a0000000000000000000000000000000000000000000000000000000008152600401610b8d90611e08565b60405180910390fd5b610ba06000611656565b565b6000600160003373ffffffffffffffffffffffffffffffffffffffff1673ffffffffffffffffffffffffffffffffffffffff16815260200190815260200160002060000154905090565b6000600560009054906101000a900473ffffffffffffffffffffffffffffffffffffffff16905090565b610c1e61164e565b73ffffffffffffffffffffffffffffffffffffffff16610c3c610bec565b73ffffffffffffffffffffffffffffffffffffffff1614610c92576040517f08c379a0000000000000000000000000000000000000000000000000000000008152600401610c8990611e08565b60405180910390fd5b80600e6000848152602001908152602001600020819055505050565b60008111610cf1576040517f08c379a0000000000000000000000000000000000000000000000000000000008152600401610ce890611e9a565b60405180910390fd5b600060405180604001604052808381526020014281525090506001600260003373ffffffffffffffffffffffffffffffffffffffff1673ffffffffffffffffffffffffffffffffffffffff16815260200190815260200160002060006101000a81548160ff02191690831515021790555080600160003373ffffffffffffffffffffffffffffffffffffffff1673ffffffffffffffffffffffffffffffffffffffff168152602001908152602001600020600082015181600001556020820151816001015590505060008054906101000a900473ffffffffffffffffffffffffffffffffffffffff1673ffffffffffffffffffffffffffffffffffffffff166323b872dd3330856040518463ffffffff1660e01b8152600401610e1693929190611cad565b6020604051808303816000875af1158015610e35573d6000803e3d6000fd5b505050506040513d601f19601f82011682018060405250810190610e599190611b1a565b505050565b600c60008273ffffffffffffffffffffffffffffffffffffffff1673ffffffffffffffffffffffffffffffffffffffff16815260200190815260200160002060040160009054906101000a900460ff1615610eee576040517f08c379a0000000000000000000000000000000000000000000000000000000008152600401610ee590611d9c565b60405180910390fd5b6000600c60008373ffffffffffffffffffffffffffffffffffffffff1673ffffffffffffffffffffffffffffffffffffffff16815260200190815260200160002090506000610f4e8260020154836005015461171c90919063ffffffff16565b9050600660009054906101000a900473ffffffffffffffffffffffffffffffffffffffff1673ffffffffffffffffffffffffffffffffffffffff166323b872dd3033846040518463ffffffff1660e01b8152600401610faf93929190611cad565b6020604051808303816000875af1158015610fce573d6000803e3d6000fd5b505050506040513d601f19601f82011682018060405250810190610ff29190611b1a565b50505050565b6000600160008373ffffffffffffffffffffffffffffffffffffffff1673ffffffffffffffffffffffffffffffffffffffff168152602001908152602001600020600001549050919050565b600260003373ffffffffffffffffffffffffffffffffffffffff1673ffffffffffffffffffffffffffffffffffffffff16815260200190815260200160002060009054906101000a900460ff166110d0576040517f08c379a00000000000000000000000000000000000000000000000000000000081526004016110c790611f06565b60405180910390fd5b6000600160003373ffffffffffffffffffffffffffffffffffffffff1673ffffffffffffffffffffffffffffffffffffffff1681526020019081526020016000206000015411611155576040517f08c379a000000000000000000000000000000000000000000000000000000000815260040161114c90611f72565b60405180910390fd5b600c60008373ffffffffffffffffffffffffffffffffffffffff1673ffffffffffffffffffffffffffffffffffffffff16815260200190815260200160002060040160009054906101000a900460ff166111e4576040517f08c379a00000000000000000000000000000000000000000000000000000000081526004016111db90611fde565b60405180910390fd5b61122f600c60008473ffffffffffffffffffffffffffffffffffffffff1673ffffffffffffffffffffffffffffffffffffffff168152602001908152602001600020600301546115f6565b61126e576040517f08c379a00000000000000000000000000000000000000000000000000000000081526004016112659061204a565b60405180910390fd5b6000600c60008473ffffffffffffffffffffffffffffffffffffffff1673ffffffffffffffffffffffffffffffffffffffff168152602001908152602001600020905081156112d2578060010160008154809291906112cc90612099565b91905055505b8060020160008154809291906112e790612099565b9190505550505050565b6000600e600083815260200190815260200160002054905080600660009054906101000a900473ffffffffffffffffffffffffffffffffffffffff1673ffffffffffffffffffffffffffffffffffffffff166370a08231336040518263ffffffff1660e01b8152600401611365919061193f565b602060405180830381865afa158015611382573d6000803e3d6000fd5b505050506040513d601f19601f820116820180604052508101906113a69190611bee565b10156113b157600080fd5b600660009054906101000a900473ffffffffffffffffffffffffffffffffffffffff1673ffffffffffffffffffffffffffffffffffffffff166323b872dd3330846040518463ffffffff1660e01b815260040161141093929190611cad565b6020604051808303816000875af115801561142f573d6000803e3d6000fd5b505050506040513d601f19601f820116820180604052508101906114539190611b1a565b50600760009054906101000a900473ffffffffffffffffffffffffffffffffffffffff1673ffffffffffffffffffffffffffffffffffffffff1663731133e9338460016040518463ffffffff1660e01b81526004016114b49392919061215e565b600060405180830381600087803b1580156114ce57600080fd5b505af11580156114e2573d6000803e3d6000fd5b505050505050565b6000600854905090565b6000600a54905090565b61150661164e565b73ffffffffffffffffffffffffffffffffffffffff16611524610bec565b73ffffffffffffffffffffffffffffffffffffffff161461157a576040517f08c379a000000000000000000000000000000000000000000000000000000000815260040161157190611e08565b60405180910390fd5b600073ffffffffffffffffffffffffffffffffffffffff168173ffffffffffffffffffffffffffffffffffffffff1614156115ea576040517f08c379a00000000000000000000000000000000000000000000000000000000081526004016115e19061221a565b60405180910390fd5b6115f381611656565b50565b6000426201518060095461160a919061223a565b836116159190612294565b10159050919050565b60006116468261163860648661173290919063ffffffff16565b61171c90919063ffffffff16565b905092915050565b600033905090565b6000600560009054906101000a900473ffffffffffffffffffffffffffffffffffffffff16905081600560006101000a81548173ffffffffffffffffffffffffffffffffffffffff021916908373ffffffffffffffffffffffffffffffffffffffff1602179055508173ffffffffffffffffffffffffffffffffffffffff168173ffffffffffffffffffffffffffffffffffffffff167f8be0079c531659141344cd1fd0a4f28419497f9722a3daafe3b4186f6b6457e060405160405180910390a35050565b6000818361172a9190612319565b905092915050565b60008183611740919061223a565b905092915050565b6040518060c00160405280600015158152602001600081526020016000815260200160008152602001600015158152602001600081525090565b600080fd5b600073ffffffffffffffffffffffffffffffffffffffff82169050919050565b60006117b282611787565b9050919050565b6117c2816117a7565b81146117cd57600080fd5b50565b6000813590506117df816117b9565b92915050565b6000602082840312156117fb576117fa611782565b5b6000611809848285016117d0565b91505092915050565b6000819050919050565b61182581611812565b82525050565b6000602082019050611840600083018461181c565b92915050565b60008115159050919050565b61185b81611846565b82525050565b61186a81611812565b82525050565b60c0820160008201516118866000850182611852565b5060208201516118996020850182611861565b5060408201516118ac6040850182611861565b5060608201516118bf6060850182611861565b5060808201516118d26080850182611852565b5060a08201516118e560a0850182611861565b50505050565b600060c0820190506119006000830184611870565b92915050565b61190f81611846565b82525050565b600060208201905061192a6000830184611906565b92915050565b611939816117a7565b82525050565b60006020820190506119546000830184611930565b92915050565b61196381611812565b811461196e57600080fd5b50565b6000813590506119808161195a565b92915050565b6000806040838503121561199d5761199c611782565b5b60006119ab85828601611971565b92505060206119bc85828601611971565b9150509250929050565b6000602082840312156119dc576119db611782565b5b60006119ea84828501611971565b91505092915050565b6119fc81611846565b8114611a0757600080fd5b50565b600081359050611a19816119f3565b92915050565b60008060408385031215611a3657611a35611782565b5b6000611a44858286016117d0565b9250506020611a5585828601611a0a565b9150509250929050565b600082825260208201905092915050565b7f61646472657373206973206e6f742063757272656e746c79207374616b696e67600082015250565b6000611aa6602083611a5f565b9150611ab182611a70565b602082019050919050565b60006020820190508181036000830152611ad581611a99565b9050919050565b6000604082019050611af16000830185611930565b611afe602083018461181c565b9392505050565b600081519050611b14816119f3565b92915050565b600060208284031215611b3057611b2f611782565b5b6000611b3e84828501611b05565b91505092915050565b7f50726f70657274792068617320616e2061637469766520766f74696e6720707260008201527f6f63657373000000000000000000000000000000000000000000000000000000602082015250565b6000611ba3602583611a5f565b9150611bae82611b47565b604082019050919050565b60006020820190508181036000830152611bd281611b96565b9050919050565b600081519050611be88161195a565b92915050565b600060208284031215611c0457611c03611782565b5b6000611c1284828501611bd9565b91505092915050565b7f496e636f727265637420616d6f756e7420666f7220617070726f76616c20726560008201527f7175657374000000000000000000000000000000000000000000000000000000602082015250565b6000611c77602583611a5f565b9150611c8282611c1b565b604082019050919050565b60006020820190508181036000830152611ca681611c6a565b9050919050565b6000606082019050611cc26000830186611930565b611ccf6020830185611930565b611cdc604083018461181c565b949350505050565b7f566f74696e6720697320656e6465640000000000000000000000000000000000600082015250565b6000611d1a600f83611a5f565b9150611d2582611ce4565b602082019050919050565b60006020820190508181036000830152611d4981611d0d565b9050919050565b7f566f74696e6720686173206e6f7420656e646564000000000000000000000000600082015250565b6000611d86601483611a5f565b9150611d9182611d50565b602082019050919050565b60006020820190508181036000830152611db581611d79565b9050919050565b7f4f776e61626c653a2063616c6c6572206973206e6f7420746865206f776e6572600082015250565b6000611df2602083611a5f565b9150611dfd82611dbc565b602082019050919050565b60006020820190508181036000830152611e2181611de5565b9050919050565b7f5374616b696e6720616d6f756e742073686f756c64206265206772656174657260008201527f207468616e203000000000000000000000000000000000000000000000000000602082015250565b6000611e84602783611a5f565b9150611e8f82611e28565b604082019050919050565b60006020820190508181036000830152611eb381611e77565b9050919050565b7f566f746572206d75737420626520616e207374616b6572000000000000000000600082015250565b6000611ef0601783611a5f565b9150611efb82611eba565b602082019050919050565b60006020820190508181036000830152611f1f81611ee3565b9050919050565b7f566f746572206d757374206861766520616374697665207374616b6500000000600082015250565b6000611f5c601c83611a5f565b9150611f6782611f26565b602082019050919050565b60006020820190508181036000830152611f8b81611f4f565b9050919050565b7f70726f706572747920686173206e6f742061637469766520766f74696e670000600082015250565b6000611fc8601e83611a5f565b9150611fd382611f92565b602082019050919050565b60006020820190508181036000830152611ff781611fbb565b9050919050565b7f566f74696e672068617320656e64656400000000000000000000000000000000600082015250565b6000612034601083611a5f565b915061203f82611ffe565b602082019050919050565b6000602082019050818103600083015261206381612027565b9050919050565b7f4e487b7100000000000000000000000000000000000000000000000000000000600052601160045260246000fd5b60006120a482611812565b91507fffffffffffffffffffffffffffffffffffffffffffffffffffffffffffffffff8214156120d7576120d661206a565b5b600182019050919050565b6000819050919050565b6000819050919050565b600061211161210c612107846120e2565b6120ec565b611812565b9050919050565b612121816120f6565b82525050565b600082825260208201905092915050565b50565b6000612148600083612127565b915061215382612138565b600082019050919050565b60006080820190506121736000830186611930565b612180602083018561181c565b61218d6040830184612118565b818103606083015261219e8161213b565b9050949350505050565b7f4f776e61626c653a206e6577206f776e657220697320746865207a65726f206160008201527f6464726573730000000000000000000000000000000000000000000000000000602082015250565b6000612204602683611a5f565b915061220f826121a8565b604082019050919050565b60006020820190508181036000830152612233816121f7565b9050919050565b600061224582611812565b915061225083611812565b9250817fffffffffffffffffffffffffffffffffffffffffffffffffffffffffffffffff04831182151516156122895761228861206a565b5b828202905092915050565b600061229f82611812565b91506122aa83611812565b9250827fffffffffffffffffffffffffffffffffffffffffffffffffffffffffffffffff038211156122df576122de61206a565b5b828201905092915050565b7f4e487b7100000000000000000000000000000000000000000000000000000000600052601260045260246000fd5b600061232482611812565b915061232f83611812565b92508261233f5761233e6122ea565b5b82820490509291505056fea26469706673582212203b13f1d25ca9172b9f44e860342e89341466a5bccb74f355b1818bd3c56bcefc64736f6c634300080b0033",
  "immutableReferences": {},
  "source": "// SPDX-License-Identifier: GPL-3.0\r\n\r\npragma solidity >=0.7.0 <0.9.0;\r\nimport \"@openzeppelin/contracts/token/ERC20/ERC20.sol\";\r\nimport \"@openzeppelin/contracts/utils/math/SafeMath.sol\";\r\nimport \"./Stakable.sol\";\r\nimport \"./Badge.sol\";\r\nimport \"@openzeppelin/contracts/access/Ownable.sol\";\r\n\r\n/**\r\n * @title Sheepnap DAO.\r\n * @dev Set & change owner\r\n */\r\ncontract SheepnapDAO is Stakable, Ownable {\r\n    using SafeMath for uint256;\r\n\r\n    //== Contracts \r\n    ERC20 private token;\r\n    Badge private badge;\r\n\r\n    //==== DAO system parameters ===\r\n    uint256 private tokenAmountForApprovalRequest = 100 * 10 ** 18; //TODO : Fix\r\n    uint256 private approvalRequestDaysToVote = 10;\r\n    uint256 private approvalPercentage = 50;\r\n    uint256 private minimalPercentageVoters = 30;\r\n\r\n    struct Property {\r\n        bool isApproved;\r\n        uint256 totalYes;\r\n        uint256 totalVoters;\r\n        uint256 registrationDate;\r\n        bool activeVoting;\r\n        uint256 treasureAmount;\r\n    }\r\n\r\n    mapping(address => Property) private properties;\r\n    //voters, accommodation contract, vote\r\n    mapping(address => mapping(address => bool)) private voters;\r\n    //badges prices\r\n    mapping(uint => uint) private badgesAmount;\r\n\r\n    constructor(address _tokenaddress, address _badgeaddress) Stakable(ERC20(_tokenaddress)) {\r\n        token = ERC20(_tokenaddress);\r\n        badge = Badge(_badgeaddress);\r\n    }\r\n\r\n    function getTokenAmountForApprovalRequest() public view returns (uint256) {\r\n        return tokenAmountForApprovalRequest;\r\n    }\r\n\r\n    function getApprovalRequestDaysToVote() public view returns (uint256) {\r\n        return approvalRequestDaysToVote;\r\n    }\r\n\r\n    function getApprovalPercentage() public view returns (uint256) {\r\n        return approvalPercentage;\r\n    }\r\n\r\n    function getMinimalPercentageVoters() public view returns (uint256) {\r\n        return minimalPercentageVoters;\r\n    }\r\n\r\n    function getApprovalRequestInfo(address _propertyaddress)\r\n        public\r\n        view\r\n        returns (Property memory)\r\n    {\r\n        return properties[_propertyaddress];\r\n    }\r\n\r\n    function addNewBadgePrice(uint _id, uint _amount) public onlyOwner {\r\n        badgesAmount[_id] = _amount;\r\n    }\r\n\r\n    function getPropertyActiveVoting(address _propertyaddress)\r\n        public\r\n        view\r\n        returns (bool)\r\n    {\r\n        return properties[_propertyaddress].activeVoting;\r\n    }\r\n\r\n    function approvalRequest(address _propertyaddress) public {\r\n        require(\r\n            !properties[_propertyaddress].activeVoting,\r\n            \"Property has an active voting process\"\r\n        );\r\n\r\n        require(\r\n            token.balanceOf(msg.sender) >= tokenAmountForApprovalRequest,\r\n            \"Incorrect amount for approval request\"\r\n        );\r\n\r\n        Property memory newProperty = Property({\r\n            isApproved: false,\r\n            totalYes: 0,\r\n            totalVoters: 0,\r\n            registrationDate: block.timestamp,\r\n            activeVoting: true,\r\n            treasureAmount: tokenAmountForApprovalRequest\r\n        });\r\n\r\n        properties[_propertyaddress] = newProperty;\r\n        token.transferFrom(\r\n            msg.sender,\r\n            address(this),\r\n            tokenAmountForApprovalRequest\r\n        );\r\n    }\r\n\r\n    function vote(address _propertyaddress, bool _vote) public {\r\n        require(stakersActive[msg.sender], \"Voter must be an staker\");\r\n        require(\r\n            stakers[msg.sender].balance > 0,\r\n            \"Voter must have active stake\"\r\n        );\r\n\r\n        //require(voters[_propertyaddress][msg.sender], \"The voter already voted.\");\r\n\r\n        require(\r\n            properties[_propertyaddress].activeVoting,\r\n            \"property has not active voting\"\r\n        );\r\n        require(\r\n            checkExpiry(properties[_propertyaddress].registrationDate),\r\n            \"Voting has ended\"\r\n        );\r\n\r\n        Property storage property = properties[_propertyaddress];\r\n        if (_vote) {\r\n            property.totalYes++;\r\n        }\r\n\r\n        property.totalVoters++;\r\n    }\r\n\r\n    function checkExpiry(uint256 _starttimestamp) private view returns (bool) {\r\n        return\r\n            _starttimestamp + (approvalRequestDaysToVote * 1 days) >=\r\n            block.timestamp;\r\n    }\r\n\r\n    function getVotingPower(address _stakerAddress)\r\n        public\r\n        view\r\n        returns (uint256)\r\n    {\r\n        return stakers[_stakerAddress].balance;\r\n    }\r\n\r\n    function finalizevoting(address _propertyaddress) public {\r\n        require(properties[_propertyaddress].activeVoting, \"Voting is ended\");\r\n        require(\r\n            checkExpiry(properties[_propertyaddress].registrationDate),\r\n            \"Voting has not ended\"\r\n        );\r\n\r\n        Property storage property = properties[_propertyaddress];\r\n\r\n        if (\r\n            getPercentage(property.totalYes, property.totalVoters) >\r\n            approvalPercentage &&\r\n            getPercentage(property.totalVoters, totalStakers) >\r\n            minimalPercentageVoters\r\n        ) {\r\n            property.isApproved = true;\r\n        }\r\n\r\n        property.activeVoting = false;\r\n    }\r\n\r\n    //TODO : add non reentrant validation\r\n    function withdrawvotingrewards(address _propertyaddress) public {\r\n        require(\r\n            !properties[_propertyaddress].activeVoting,\r\n            \"Voting has not ended\"\r\n        );\r\n        Property storage property = properties[_propertyaddress];\r\n        uint256 rewards = property.treasureAmount.div(property.totalVoters);\r\n        token.transferFrom(address(this), msg.sender, rewards);\r\n    }\r\n\r\n    function getPercentage(uint256 _amount, uint256 _totalamount)\r\n        private\r\n        pure\r\n        returns (uint256)\r\n    {\r\n        return _amount.mul(100).div(_totalamount);\r\n    }\r\n\r\n    //TODO : add non reentrant validation\r\n    function mintForBuy(uint256 id) public \r\n    {\r\n        uint amount = badgesAmount[id];\r\n        require(token.balanceOf(msg.sender) >= amount);\r\n        token.transferFrom(msg.sender, address(this), amount);\r\n        badge.mint(msg.sender, id, 1, \"\");\r\n    }\r\n\r\n    //=== EVENTS ===== //\r\n    event ApprovalRequestCreated(address _accommodation);\r\n    event Voting(address indexed user, bool vote);\r\n    event WithdrawRewards(address _staker);\r\n}\r\n",
  "sourcePath": "C:\\Users\\ivan9\\OneDrive\\Documentos\\GitHub\\sheepnap-contracts\\contracts\\SheepnapDAO.sol",
  "compiler": {
    "name": "solc",
    "version": "0.8.11+commit.d7f03943.Emscripten.clang"
  },
  "schemaVersion": "3.4.3",
  "updatedAt": "2022-02-17T16:33:43.391Z",
  "devdoc": {
    "details": "Set & change owner",
    "kind": "dev",
    "methods": {
      "owner()": {
        "details": "Returns the address of the current owner."
      },
      "renounceOwnership()": {
        "details": "Leaves the contract without owner. It will not be possible to call `onlyOwner` functions anymore. Can only be called by the current owner. NOTE: Renouncing ownership will leave the contract without an owner, thereby removing any functionality that is only available to the owner."
      },
      "transferOwnership(address)": {
        "details": "Transfers ownership of the contract to a new account (`newOwner`). Can only be called by the current owner."
      }
    },
    "title": "Sheepnap DAO.",
    "version": 1
  },
  "userdoc": {
    "kind": "user",
    "methods": {},
    "version": 1
  }
}