{
  "contractName": "Stakable",
  "abi": [
    {
      "inputs": [
        {
          "internalType": "contract ERC20",
          "name": "_woolToken",
          "type": "address"
        }
      ],
      "stateMutability": "nonpayable",
      "type": "constructor"
    },
    {
      "anonymous": false,
      "inputs": [
        {
          "indexed": false,
          "internalType": "address",
          "name": "token",
          "type": "address"
        },
        {
          "indexed": false,
          "internalType": "uint256",
          "name": "amount",
          "type": "uint256"
        }
      ],
      "name": "Recovered",
      "type": "event"
    },
    {
      "anonymous": false,
      "inputs": [
        {
          "indexed": false,
          "internalType": "uint256",
          "name": "reward",
          "type": "uint256"
        }
      ],
      "name": "RewardAdded",
      "type": "event"
    },
    {
      "anonymous": false,
      "inputs": [
        {
          "indexed": true,
          "internalType": "address",
          "name": "user",
          "type": "address"
        },
        {
          "indexed": false,
          "internalType": "uint256",
          "name": "reward",
          "type": "uint256"
        }
      ],
      "name": "RewardPaid",
      "type": "event"
    },
    {
      "anonymous": false,
      "inputs": [
        {
          "indexed": false,
          "internalType": "uint256",
          "name": "newDuration",
          "type": "uint256"
        }
      ],
      "name": "RewardsDurationUpdated",
      "type": "event"
    },
    {
      "anonymous": false,
      "inputs": [
        {
          "indexed": true,
          "internalType": "address",
          "name": "user",
          "type": "address"
        },
        {
          "indexed": false,
          "internalType": "uint256",
          "name": "amount",
          "type": "uint256"
        }
      ],
      "name": "Staked",
      "type": "event"
    },
    {
      "anonymous": false,
      "inputs": [
        {
          "indexed": true,
          "internalType": "address",
          "name": "user",
          "type": "address"
        },
        {
          "indexed": false,
          "internalType": "uint256",
          "name": "amount",
          "type": "uint256"
        }
      ],
      "name": "Withdrawn",
      "type": "event"
    },
    {
      "inputs": [
        {
          "internalType": "uint256",
          "name": "_stakingamount",
          "type": "uint256"
        }
      ],
      "name": "stake",
      "outputs": [],
      "stateMutability": "nonpayable",
      "type": "function"
    },
    {
      "inputs": [],
      "name": "unstake",
      "outputs": [],
      "stateMutability": "nonpayable",
      "type": "function"
    },
    {
      "inputs": [],
      "name": "getStakeAmount",
      "outputs": [
        {
          "internalType": "uint256",
          "name": "",
          "type": "uint256"
        }
      ],
      "stateMutability": "view",
      "type": "function"
    }
  ],
  "bytecode": "0x608060405234801561001057600080fd5b50604051610851380380610851833981810160405281019061003291906100ed565b806000806101000a81548173ffffffffffffffffffffffffffffffffffffffff021916908373ffffffffffffffffffffffffffffffffffffffff1602179055505061011a565b600080fd5b600073ffffffffffffffffffffffffffffffffffffffff82169050919050565b60006100a88261007d565b9050919050565b60006100ba8261009d565b9050919050565b6100ca816100af565b81146100d557600080fd5b50565b6000815190506100e7816100c1565b92915050565b60006020828403121561010357610102610078565b5b6000610111848285016100d8565b91505092915050565b610728806101296000396000f3fe608060405234801561001057600080fd5b50600436106100415760003560e01c80632def662014610046578063722580b614610050578063a694fc3a1461006e575b600080fd5b61004e61008a565b005b610058610251565b6040516100659190610464565b60405180910390f35b610088600480360381019061008391906104b0565b61029b565b005b600260003373ffffffffffffffffffffffffffffffffffffffff1673ffffffffffffffffffffffffffffffffffffffff16815260200190815260200160002060009054906101000a900460ff16610116576040517f08c379a000000000000000000000000000000000000000000000000000000000815260040161010d9061053a565b60405180910390fd5b60008054906101000a900473ffffffffffffffffffffffffffffffffffffffff1673ffffffffffffffffffffffffffffffffffffffff1663a9059cbb30600160003373ffffffffffffffffffffffffffffffffffffffff1673ffffffffffffffffffffffffffffffffffffffff168152602001908152602001600020600001546040518363ffffffff1660e01b81526004016101b392919061059b565b6020604051808303816000875af11580156101d2573d6000803e3d6000fd5b505050506040513d601f19601f820116820180604052508101906101f691906105fc565b506000600260003373ffffffffffffffffffffffffffffffffffffffff1673ffffffffffffffffffffffffffffffffffffffff16815260200190815260200160002060006101000a81548160ff021916908315150217905550565b6000600160003373ffffffffffffffffffffffffffffffffffffffff1673ffffffffffffffffffffffffffffffffffffffff16815260200190815260200160002060000154905090565b600081116102de576040517f08c379a00000000000000000000000000000000000000000000000000000000081526004016102d59061069b565b60405180910390fd5b600060405180604001604052808381526020014281525090506001600260003373ffffffffffffffffffffffffffffffffffffffff1673ffffffffffffffffffffffffffffffffffffffff16815260200190815260200160002060006101000a81548160ff02191690831515021790555080600160003373ffffffffffffffffffffffffffffffffffffffff1673ffffffffffffffffffffffffffffffffffffffff168152602001908152602001600020600082015181600001556020820151816001015590505060008054906101000a900473ffffffffffffffffffffffffffffffffffffffff1673ffffffffffffffffffffffffffffffffffffffff166323b872dd3330856040518463ffffffff1660e01b8152600401610403939291906106bb565b6020604051808303816000875af1158015610422573d6000803e3d6000fd5b505050506040513d601f19601f8201168201806040525081019061044691906105fc565b505050565b6000819050919050565b61045e8161044b565b82525050565b60006020820190506104796000830184610455565b92915050565b600080fd5b61048d8161044b565b811461049857600080fd5b50565b6000813590506104aa81610484565b92915050565b6000602082840312156104c6576104c561047f565b5b60006104d48482850161049b565b91505092915050565b600082825260208201905092915050565b7f61646472657373206973206e6f742063757272656e746c79207374616b696e67600082015250565b60006105246020836104dd565b915061052f826104ee565b602082019050919050565b6000602082019050818103600083015261055381610517565b9050919050565b600073ffffffffffffffffffffffffffffffffffffffff82169050919050565b60006105858261055a565b9050919050565b6105958161057a565b82525050565b60006040820190506105b0600083018561058c565b6105bd6020830184610455565b9392505050565b60008115159050919050565b6105d9816105c4565b81146105e457600080fd5b50565b6000815190506105f6816105d0565b92915050565b6000602082840312156106125761061161047f565b5b6000610620848285016105e7565b91505092915050565b7f5374616b696e6720616d6f756e742073686f756c64206265206772656174657260008201527f207468616e203000000000000000000000000000000000000000000000000000602082015250565b60006106856027836104dd565b915061069082610629565b604082019050919050565b600060208201905081810360008301526106b481610678565b9050919050565b60006060820190506106d0600083018661058c565b6106dd602083018561058c565b6106ea6040830184610455565b94935050505056fea264697066735822122074ec2068ea8a397ce30790bc7a30b0ccca79514f08fe1bea200839c64a73073764736f6c634300080b0033",
  "immutableReferences": {},
  "source": "// SPDX-License-Identifier: MIT\npragma solidity >=0.7.0 <0.9.0;\nimport \"@openzeppelin/contracts/token/ERC20/ERC20.sol\";\n\ncontract Stakable\n{\n  struct Staker\n  {\n      uint256 balance;\n      uint256 timestampSince;      \n  }\n\n  ERC20 private woolToken;\n  \n  mapping(address => Staker) internal stakers;\n  mapping(address => bool) internal stakersActive;\n  uint internal totalStakers;\n  uint internal treasure;\n\n  constructor(ERC20 _woolToken) \n  {\n    woolToken = _woolToken;\n  }\n\n  function stake(uint _stakingamount) public\n  {\n    require(_stakingamount > 0, \"Staking amount should be greater than 0\");\n\n    Staker memory staker = Staker(\n    {\n      balance : _stakingamount,\n      timestampSince : block.timestamp\n    });\n    \n    stakersActive[msg.sender] = true;    \n    stakers[msg.sender] = staker;\n    woolToken.transferFrom(msg.sender, address(this), _stakingamount);\n  }\n\n  function unstake() public \n  {\n    require(stakersActive[msg.sender], 'address is not currently staking');\n\n    woolToken.transfer(address(this), stakers[msg.sender].balance);\n    stakersActive[msg.sender] = false;\n  }\n\n  function getStakeAmount() public view returns (uint)\n  {\n    return stakers[msg.sender].balance;\n  }\n\n  function addAmountToTreasure(uint _amount) internal\n  {\n    treasure += _amount;\n  }\n\n  function getStakeInfluence(address _address) internal view returns (uint)\n  {\n    return woolToken.balanceOf(_address);\n  }\n\n  /* ========== EVENTS ========== */\n  event RewardAdded(uint256 reward);\n  event Staked(address indexed user, uint256 amount);\n  event Withdrawn(address indexed user, uint256 amount);\n  event RewardPaid(address indexed user, uint256 reward);\n  event RewardsDurationUpdated(uint256 newDuration);\n  event Recovered(address token, uint256 amount);\n}\n",
  "sourcePath": "/Users/santiagomarinrojas/Documents/GitHub/sheepnap-contracts/contracts/Stakable.sol",
  "compiler": {
    "name": "solc",
    "version": "0.8.11+commit.d7f03943.Emscripten.clang"
  },
  "schemaVersion": "3.4.3",
  "updatedAt": "2022-01-30T01:48:10.455Z",
  "devdoc": {
    "kind": "dev",
    "methods": {},
    "version": 1
  },
  "userdoc": {
    "kind": "user",
    "methods": {},
    "version": 1
  }
}